S00D00004F707067362E737265634B
S11300000C9434000C943E000C943E000C943E007E
S11300100C943E000C943E000C943E000C943E0064
S11300200C943E000C943E000C943E000C943E0054
S11300300C943E000C943E000C943E000C943E0044
S11300400C943E000C943E000C943E000C943E0034
S11300500C943E000C943E000C943E000C943E0024
S11300600C943E000C943E0011241FBECFEFD4E04C
S1130070DEBFCDBF0E9440000C9459000C940000D8
S1130080539A98E05B9A2FE631E181E021503040A9
S11300908040E1F700C000008BB189278BB92FE3C2
S11300A03DE083E0215030408040E1F700C0000093
S10900B0E9CFF894FFCF34
S9030000FC
