S00F00004C4544736F66742E7372656384
S11300000C9434000C943E000C943E000C943E007E
S11300100C943E000C943E000C943E000C943E0064
S11300200C943E000C943E000C943E000C943E0054
S11300300C943E000C943E000C943E000C943E0044
S11300400C943E000C943E000C943E000C943E0034
S11300500C943E000C943E000C943E000C943E0024
S11300600C943E000C943E0011241FBECFEFD4E04C
S1130070DEBFCDBF0E944B000C94AF000C94000077
S1130080009741F0E9EFF0E03197F1F700C000008C
S11300900197C1F70895539A0F2EF4E6EF2EF12C31
S11300A0F02D6894BB24B3F80AE010E0C0E0D0E07F
S11300B0CE01B7010E9487006B015B9ACB010E94BD
S11300C040008BB18B258BB9C8018C199D090E9406
S11300D040002A96C83E83E0D80751F7C0E0D0E03C
S11300E0CE01B7010E9487006B015B9AC801861B91
S11300F0970B0E9440008BB18B258BB9C6010E94DF
S113010040002A96C83E83E0D80751F7CFCF97FB2B
S1130110072E16F4009407D077FD09D00E949B00A7
S113012007FC05D03EF4909581959F4F08957095F6
S113013061957F4F0895AA1BBB1B51E107C0AA1FFD
S1130140BB1FA617B70710F0A61BB70B881F991F74
S11301505A95A9F780959095BC01CD010895F8941E
S1050160FFCFCB
S9030000FC
